{
  "_format": "hh-sol-artifact-1",
  "contractName": "FusionStaking",
  "sourceName": "contracts/tokens/staking.sol",
  "abi": [
    {
      "inputs": [
        {
          "internalType": "address",
          "name": "_stakingToken",
          "type": "address"
        },
        {
          "internalType": "address",
          "name": "_rewardsToken",
          "type": "address"
        },
        {
          "internalType": "address",
          "name": "administratorAddress",
          "type": "address"
        },
        {
          "internalType": "address",
          "name": "_feeReceiver",
          "type": "address"
        }
      ],
      "stateMutability": "nonpayable",
      "type": "constructor"
    },
    {
      "anonymous": false,
      "inputs": [
        {
          "indexed": true,
          "internalType": "address",
          "name": "previousOwner",
          "type": "address"
        },
        {
          "indexed": true,
          "internalType": "address",
          "name": "newOwner",
          "type": "address"
        }
      ],
      "name": "OwnershipTransferred",
      "type": "event"
    },
    {
      "anonymous": false,
      "inputs": [
        {
          "indexed": false,
          "internalType": "string",
          "name": "Reason",
          "type": "string"
        }
      ],
      "name": "messageEvent",
      "type": "event"
    },
    {
      "anonymous": false,
      "inputs": [
        {
          "indexed": false,
          "internalType": "uint256",
          "name": "timeOfCreation",
          "type": "uint256"
        },
        {
          "indexed": false,
          "internalType": "string",
          "name": "poolName",
          "type": "string"
        },
        {
          "indexed": false,
          "internalType": "uint256",
          "name": "poolID",
          "type": "uint256"
        }
      ],
      "name": "poolCreated",
      "type": "event"
    },
    {
      "anonymous": false,
      "inputs": [
        {
          "indexed": false,
          "internalType": "uint256",
          "name": "timeOfChange",
          "type": "uint256"
        },
        {
          "indexed": false,
          "internalType": "bool",
          "name": "isPoolPaused",
          "type": "bool"
        }
      ],
      "name": "poolState",
      "type": "event"
    },
    {
      "anonymous": false,
      "inputs": [
        {
          "indexed": false,
          "internalType": "address",
          "name": "stakeHolder",
          "type": "address"
        },
        {
          "indexed": false,
          "internalType": "uint256",
          "name": "timeOfClaim",
          "type": "uint256"
        },
        {
          "indexed": false,
          "internalType": "uint256",
          "name": "amountUnstaked",
          "type": "uint256"
        },
        {
          "indexed": false,
          "internalType": "uint256",
          "name": "rewardEarned",
          "type": "uint256"
        }
      ],
      "name": "rewardClaimed",
      "type": "event"
    },
    {
      "anonymous": false,
      "inputs": [
        {
          "indexed": false,
          "internalType": "address",
          "name": "stakeHolder",
          "type": "address"
        },
        {
          "indexed": false,
          "internalType": "uint256",
          "name": "timeOfStake",
          "type": "uint256"
        },
        {
          "indexed": false,
          "internalType": "uint256",
          "name": "amountStaked",
          "type": "uint256"
        }
      ],
      "name": "userStaked",
      "type": "event"
    },
    {
      "inputs": [
        {
          "internalType": "uint256",
          "name": "_poolID",
          "type": "uint256"
        },
        {
          "internalType": "uint256",
          "name": "_newAPY",
          "type": "uint256"
        }
      ],
      "name": "adjustAPY",
      "outputs": [],
      "stateMutability": "nonpayable",
      "type": "function"
    },
    {
      "inputs": [
        {
          "internalType": "address",
          "name": "userAddress",
          "type": "address"
        },
        {
          "internalType": "uint256",
          "name": "poolID",
          "type": "uint256"
        }
      ],
      "name": "calculateUserRewards",
      "outputs": [
        {
          "internalType": "uint256",
          "name": "",
          "type": "uint256"
        }
      ],
      "stateMutability": "view",
      "type": "function"
    },
    {
      "inputs": [
        {
          "internalType": "uint256",
          "name": "_poolID",
          "type": "uint256"
        }
      ],
      "name": "claimReward",
      "outputs": [],
      "stateMutability": "nonpayable",
      "type": "function"
    },
    {
      "inputs": [
        {
          "internalType": "string",
          "name": "_poolName",
          "type": "string"
        },
        {
          "internalType": "uint256",
          "name": "_stakingDuration",
          "type": "uint256"
        },
        {
          "internalType": "uint256",
          "name": "_APY",
          "type": "uint256"
        },
        {
          "internalType": "uint256",
          "name": "_minimumDeposit",
          "type": "uint256"
        }
      ],
      "name": "createPool",
      "outputs": [
        {
          "internalType": "uint256",
          "name": "_createdPoolIndex",
          "type": "uint256"
        }
      ],
      "stateMutability": "nonpayable",
      "type": "function"
    },
    {
      "inputs": [],
      "name": "feeReceiver",
      "outputs": [
        {
          "internalType": "address",
          "name": "",
          "type": "address"
        }
      ],
      "stateMutability": "view",
      "type": "function"
    },
    {
      "inputs": [
        {
          "internalType": "uint256",
          "name": "_poolID",
          "type": "uint256"
        }
      ],
      "name": "getAPY",
      "outputs": [
        {
          "internalType": "uint256",
          "name": "",
          "type": "uint256"
        }
      ],
      "stateMutability": "view",
      "type": "function"
    },
    {
      "inputs": [
        {
          "internalType": "uint256",
          "name": "poolID",
          "type": "uint256"
        },
        {
          "internalType": "address",
          "name": "userAddress",
          "type": "address"
        }
      ],
      "name": "getLastStakeDate",
      "outputs": [
        {
          "internalType": "uint256",
          "name": "",
          "type": "uint256"
        }
      ],
      "stateMutability": "view",
      "type": "function"
    },
    {
      "inputs": [
        {
          "internalType": "uint256",
          "name": "_poolID",
          "type": "uint256"
        }
      ],
      "name": "getMinimumDeposit",
      "outputs": [
        {
          "internalType": "uint256",
          "name": "_minimumDeposit",
          "type": "uint256"
        }
      ],
      "stateMutability": "view",
      "type": "function"
    },
    {
      "inputs": [
        {
          "internalType": "uint256",
          "name": "poolID",
          "type": "uint256"
        }
      ],
      "name": "getPoolStakeDuration",
      "outputs": [
        {
          "internalType": "uint256",
          "name": "",
          "type": "uint256"
        }
      ],
      "stateMutability": "view",
      "type": "function"
    },
    {
      "inputs": [
        {
          "internalType": "uint256",
          "name": "_poolID",
          "type": "uint256"
        }
      ],
      "name": "getPoolState",
      "outputs": [
        {
          "internalType": "bool",
          "name": "_stakingIsPaused",
          "type": "bool"
        }
      ],
      "stateMutability": "view",
      "type": "function"
    },
    {
      "inputs": [],
      "name": "getRewardLeftInContract",
      "outputs": [
        {
          "internalType": "uint256",
          "name": "rewardsAvailable",
          "type": "uint256"
        }
      ],
      "stateMutability": "view",
      "type": "function"
    },
    {
      "inputs": [],
      "name": "getTotalStakeHolderCount",
      "outputs": [
        {
          "internalType": "uint256",
          "name": "",
          "type": "uint256"
        }
      ],
      "stateMutability": "view",
      "type": "function"
    },
    {
      "inputs": [],
      "name": "getTotalStaked",
      "outputs": [
        {
          "internalType": "uint256",
          "name": "",
          "type": "uint256"
        }
      ],
      "stateMutability": "view",
      "type": "function"
    },
    {
      "inputs": [
        {
          "internalType": "uint256",
          "name": "poolID",
          "type": "uint256"
        },
        {
          "internalType": "address",
          "name": "userAddress",
          "type": "address"
        }
      ],
      "name": "getUserStakingBalance",
      "outputs": [
        {
          "internalType": "uint256",
          "name": "",
          "type": "uint256"
        }
      ],
      "stateMutability": "view",
      "type": "function"
    },
    {
      "inputs": [],
      "name": "owner",
      "outputs": [
        {
          "internalType": "address",
          "name": "",
          "type": "address"
        }
      ],
      "stateMutability": "view",
      "type": "function"
    },
    {
      "inputs": [
        {
          "internalType": "uint256",
          "name": "",
          "type": "uint256"
        }
      ],
      "name": "pool",
      "outputs": [
        {
          "internalType": "string",
          "name": "poolName",
          "type": "string"
        },
        {
          "internalType": "uint256",
          "name": "stakingDuration",
          "type": "uint256"
        },
        {
          "internalType": "uint256",
          "name": "APY",
          "type": "uint256"
        },
        {
          "internalType": "uint256",
          "name": "minimumDeposit",
          "type": "uint256"
        },
        {
          "internalType": "uint256",
          "name": "totalStaked",
          "type": "uint256"
        },
        {
          "internalType": "bool",
          "name": "stakingIsPaused",
          "type": "bool"
        },
        {
          "internalType": "bool",
          "name": "poolIsInitialized",
          "type": "bool"
        },
        {
          "internalType": "uint256",
          "name": "stakersCount",
          "type": "uint256"
        }
      ],
      "stateMutability": "view",
      "type": "function"
    },
    {
      "inputs": [
        {
          "internalType": "uint256",
          "name": "",
          "type": "uint256"
        }
      ],
      "name": "poolIndexArray",
      "outputs": [
        {
          "internalType": "uint256",
          "name": "",
          "type": "uint256"
        }
      ],
      "stateMutability": "view",
      "type": "function"
    },
    {
      "inputs": [],
      "name": "renounceOwnership",
      "outputs": [],
      "stateMutability": "nonpayable",
      "type": "function"
    },
    {
      "inputs": [],
      "name": "rewardIntervalInSeconds",
      "outputs": [
        {
          "internalType": "uint256",
          "name": "",
          "type": "uint256"
        }
      ],
      "stateMutability": "view",
      "type": "function"
    },
    {
      "inputs": [],
      "name": "rewardsToken",
      "outputs": [
        {
          "internalType": "contract IERC20",
          "name": "",
          "type": "address"
        }
      ],
      "stateMutability": "view",
      "type": "function"
    },
    {
      "inputs": [
        {
          "internalType": "uint256",
          "name": "_poolID",
          "type": "uint256"
        },
        {
          "internalType": "uint256",
          "name": "_minimumDepositInWei",
          "type": "uint256"
        }
      ],
      "name": "setMinimumDeposit",
      "outputs": [],
      "stateMutability": "nonpayable",
      "type": "function"
    },
    {
      "inputs": [
        {
          "internalType": "uint256",
          "name": "_interval",
          "type": "uint256"
        }
      ],
      "name": "setRewardInterval",
      "outputs": [],
      "stateMutability": "nonpayable",
      "type": "function"
    },
    {
      "inputs": [
        {
          "internalType": "uint256",
          "name": "_amount",
          "type": "uint256"
        },
        {
          "internalType": "uint256",
          "name": "poolID",
          "type": "uint256"
        }
      ],
      "name": "stake",
      "outputs": [],
      "stateMutability": "nonpayable",
      "type": "function"
    },
    {
      "inputs": [],
      "name": "stakingToken",
      "outputs": [
        {
          "internalType": "contract IERC20",
          "name": "",
          "type": "address"
        }
      ],
      "stateMutability": "view",
      "type": "function"
    },
    {
      "inputs": [
        {
          "internalType": "uint256",
          "name": "_poolID",
          "type": "uint256"
        }
      ],
      "name": "togglePausePool",
      "outputs": [],
      "stateMutability": "nonpayable",
      "type": "function"
    },
    {
      "inputs": [
        {
          "internalType": "address",
          "name": "newOwner",
          "type": "address"
        }
      ],
      "name": "transferOwnership",
      "outputs": [],
      "stateMutability": "nonpayable",
      "type": "function"
    }
  ],
  "bytecode": "0x60806040523480156200001157600080fd5b5060405162001b8738038062001b8783398101604081905262000034916200011d565b6200003f33620000b0565b600280546001600160a01b038087166001600160a01b03199283161790925560018054928616929091169190911790556200007a82620000b0565b600380546001600160a01b0319166001600160a01b039290921691909117905550506000600555506301e133806007556200017a565b600080546001600160a01b038381166001600160a01b0319831681178455604051919092169283917f8be0079c531659141344cd1fd0a4f28419497f9722a3daafe3b4186f6b6457e09190a35050565b80516001600160a01b03811681146200011857600080fd5b919050565b600080600080608085870312156200013457600080fd5b6200013f8562000100565b93506200014f6020860162000100565b92506200015f6040860162000100565b91506200016f6060860162000100565b905092959194509250565b6119fd806200018a6000396000f3fe608060405234801561001057600080fd5b506004361061018e5760003560e01c8063ad6e8932116100de578063d1af0c7d11610097578063eeee849b11610071578063eeee849b146103bb578063f2fde38b146103de578063fe313112146103f1578063ffe84abd1461041857600080fd5b8063d1af0c7d14610382578063e1a7c82314610395578063e3e84213146103a857600080fd5b8063ad6e8932146102c6578063ae169a50146102d9578063ae9ffcc6146102ec578063b159751714610326578063b3f006741461035c578063cff017ea1461036f57600080fd5b806372f702f31161014b5780637b0472f0116101255780637b0472f0146102555780638a41e5d7146102685780638da5cb5b146102a2578063a208298b146102b357600080fd5b806372f702f3146101f45780637545f9371461021f5780637a7ff0dd1461024257600080fd5b80630917e7761461019357806313c235d3146101ae57806355d67cb7146101d157806364f45e55146101d957806370eb4618146101e2578063715018a6146101ea575b600080fd5b61019b61042b565b6040519081526020015b60405180910390f35b61019b6101bc366004611761565b60009081526004602052604090206001015490565b61019b610472565b61019b60075481565b61019b6104b2565b6101f2610554565b005b600254610207906001600160a01b031681565b6040516001600160a01b0390911681526020016101a5565b61019b61022d366004611761565b60009081526004602052604090206003015490565b61019b610250366004611650565b610593565b6101f26102633660046117bf565b610689565b61019b610276366004611793565b60008281526004602090815260408083206001600160a01b038516845260070190915290205492915050565b6000546001600160a01b0316610207565b61019b6102c136600461169c565b610a13565b6101f26102d4366004611761565b610bc0565b6101f26102e7366004611761565b610c50565b61019b6102fa366004611793565b60008281526004602090815260408083206001600160a01b038516845260050190915290205492915050565b61034c610334366004611761565b60009081526004602052604090206008015460ff1690565b60405190151581526020016101a5565b600354610207906001600160a01b031681565b6101f261037d3660046117bf565b6112ee565b600154610207906001600160a01b031681565b61019b6103a3366004611761565b61132d565b6101f26103b6366004611761565b61134e565b61019b6103c9366004611761565b60009081526004602052604090206002015490565b6101f26103ec36600461162e565b61137d565b6104046103ff366004611761565b611418565b6040516101a598979695949392919061182e565b6101f26104263660046117bf565b6114ea565b60008060005b60065481101561046c576000818152600460208190526040909120015461045890836118db565b91508061046481611980565b915050610431565b50919050565b60008060005b60065481101561046c5760008181526004602052604090206009015461049e90836118db565b9150806104aa81611980565b915050610478565b6001546040516370a0823160e01b815230600482015260009182916001600160a01b03909116906370a082319060240160206040518083038186803b1580156104fa57600080fd5b505afa15801561050e573d6000803e3d6000fd5b505050506040513d601f19601f82011682018060405250810190610532919061177a565b9050600061053e61042b565b9050600061054c8284611934565b949350505050565b6000546001600160a01b031633146105875760405162461bcd60e51b815260040161057e9061187d565b60405180910390fd5b6105916000611529565b565b60008181526004602090815260408083206001600160a01b038616845260060190915281205460ff1615156001141561067f5760008281526004602090815260408083206001600160a01b0387168452600701909152812054906105f78242611934565b60008581526004602090815260408083206001600160a01b038a16845260050190915281205491925061062d620f4240836118f3565b90506000600754846127106106429190611915565b61064c91906118f3565b6000888152600460205260409020600201546106689084611915565b6106729190611915565b9550610683945050505050565b5060005b92915050565b60008181526004602052604090206008015460ff6101009091041615156001146106eb5760405162461bcd60e51b8152602060048201526013602482015272141bdbdb08191bd95cc81b9bdd08195e1a5cdd606a1b604482015260640161057e565b60008181526004602052604090206008015460ff16156107735760405162461bcd60e51b815260206004820152603e60248201527f5374616b696e6720696e207468697320706f6f6c2069732063757272656e746c60448201527f79205061757365642e20506c6561736520636f6e746163742061646d696e0000606482015260840161057e565b600081815260046020908152604080832033845260060190915290205460ff16156108065760405162461bcd60e51b815260206004820152603d60248201527f596f752063757272656e746c7920686176652061207374616b6520696e20746860448201527f697320706f6f6c2e20596f75206861766520746f20556e7374616b652e000000606482015260840161057e565b60008181526004602052604090206003015482101561088f576040805162461bcd60e51b81526020600482015260248101919091527f7374616b6528293a20596f752061726520747279696e6720746f207374616b6560448201527f2062656c6f7720746865206d696e696d756d20666f72207468697320706f6f6c606482015260840161057e565b600081815260046020819052604082200180548492906108b09084906118db565b90915550506000818152600460209081526040808320338452600501909152812080548492906108e19084906118db565b90915550506002546040516323b872dd60e01b8152336004820152306024820152604481018490526001600160a01b03909116906323b872dd90606401602060405180830381600087803b15801561093857600080fd5b505af115801561094c573d6000803e3d6000fd5b505050506040513d601f19601f82011682018060405250810190610970919061167a565b5060008181526004602052604081206009018054600192906109939084906118db565b9091555050600081815260046020908152604080832033808552600682018452828520805460ff191660011790556007909101835292819020429081905581519384529183019190915281018390527f1835b101ea7447f2acc185724289ae4febae3bfcd360c35fe5e92f998d158e649060600160405180910390a15050565b600080546001600160a01b03163314610a3e5760405162461bcd60e51b815260040161057e9061187d565b600083118015610a4f57506103e883105b610aa75760405162461bcd60e51b8152602060048201526024808201527f4150592063616e206f6e6c79206265206265747765656e20312520616e6420316044820152633030302560e01b606482015260840161057e565b60055460009081526004602090815260409091208651610ac992880190611579565b50600580546000908152600460205260408082206001908101889055835483528183206002018790558354835281832060030186905583548352908220600801805461ff00191661010017905582546006805480840182559084527ff652222313e28459528d920b65115c16c04f3efc82aaedc97be59f3f377c0d3f0181905590929190610b589084906118db565b925050819055507fdfecf1fc9122c3b3f25ee891eedc4d9c2f7a2e389de06ee26b1b0d2bf575450c42866001600554610b919190611934565b604051610ba0939291906118b2565b60405180910390a16001600554610bb79190611934565b95945050505050565b6000546001600160a01b03163314610bea5760405162461bcd60e51b815260040161057e9061187d565b600081815260046020908152604091829020600801805460ff8082161560ff199092168217909255835142815291161515918101919091527fe2dc77e9c5a6309793ae1aed6da3ffa5ed77f54280d597b9eaf2bb538a8ae23e910160405180910390a150565b600081815260046020908152604080832033845260060190915290205460ff161515600114610cd35760405162461bcd60e51b815260206004820152602960248201527f596f752063757272656e746c792068617665206e6f207374616b6520696e20746044820152683434b9903837b7b61760b91b606482015260840161057e565b600081815260046020818152604080842033855260078101835281852054600582018452918520549486905292909152600190910154909190610d168342611934565b1015610f79576000610d2b620f4240836118f3565b90506000610d3a826014611915565b610d4690612710611915565b9050610d528184611934565b6000868152600460209081526040808320338452600501909152812080549295508392909190610d83908490611934565b909155505060025460035460405163a9059cbb60e01b81526001600160a01b0391821660048201526024810184905291169063a9059cbb90604401602060405180830381600087803b158015610dd857600080fd5b505af1158015610dec573d6000803e3d6000fd5b505050506040513d601f19601f82011682018060405250810190610e10919061167a565b50600085815260046020818152604080842033808652600590910190925280842093909355600254925163a9059cbb60e01b815291820152602481018590526001600160a01b039091169063a9059cbb90604401602060405180830381600087803b158015610e7e57600080fd5b505af1158015610e92573d6000803e3d6000fd5b505050506040513d601f19601f82011682018060405250810190610eb6919061167a565b50610ec181846118db565b60008681526004602081905260408220018054909190610ee2908490611934565b90915550506000858152600460208181526040808420338552600681018352908420805460ff19169055888452919052600901805460019290610f26908490611934565b909155505060408051338152426020820152908101849052600060608201527fc2af4912016acefa1911d5321e5f44658214ece74741a1bd267525dec7f309ae9060800160405180910390a15050505050565b6000610f853385610593565b905060008111610fe25760405162461bcd60e51b815260206004820152602260248201527f5265776172647320697320746f6f20736d616c6c20746f20626520636c61696d604482015261195960f21b606482015260840161057e565b6001546040516370a0823160e01b81523060048201526000916001600160a01b0316906370a082319060240160206040518083038186803b15801561102657600080fd5b505afa15801561103a573d6000803e3d6000fd5b505050506040513d601f19601f8201168201806040525081019061105e919061177a565b9050600061106a61042b565b905060006110788284611934565b905083811015611109578093507f9fd40b777a67006201b62c0025adca7fed13f4f97a8c97e859b02a025adad78f6040516111009060208082526033908201527f536f727279207468657265206973206e6f206d6f726520726577617264206c65604082015272199d081a5b881d1a1a5cc810dbdb9d1c9858dd606a1b606082015260800190565b60405180910390a15b60015460405163a9059cbb60e01b8152336004820152602481018690526001600160a01b039091169063a9059cbb90604401602060405180830381600087803b15801561115557600080fd5b505af1158015611169573d6000803e3d6000fd5b505050506040513d601f19601f8201168201806040525081019061118d919061167a565b50600087815260046020818152604080842033808652600590910190925280842093909355600254925163a9059cbb60e01b815291820152602481018790526001600160a01b039091169063a9059cbb90604401602060405180830381600087803b1580156111fb57600080fd5b505af115801561120f573d6000803e3d6000fd5b505050506040513d601f19601f82011682018060405250810190611233919061167a565b5060008781526004602081905260408220018054879290611255908490611934565b90915550506000878152600460208181526040808420338552600681018352908420805460ff191690558a8452919052600901805460019290611299908490611934565b909155505060408051338152426020820152908101869052606081018590527fc2af4912016acefa1911d5321e5f44658214ece74741a1bd267525dec7f309ae9060800160405180910390a150505050505050565b6000546001600160a01b031633146113185760405162461bcd60e51b815260040161057e9061187d565b60009182526004602052604090912060030155565b6006818154811061133d57600080fd5b600091825260209091200154905081565b6000546001600160a01b031633146113785760405162461bcd60e51b815260040161057e9061187d565b600755565b6000546001600160a01b031633146113a75760405162461bcd60e51b815260040161057e9061187d565b6001600160a01b03811661140c5760405162461bcd60e51b815260206004820152602660248201527f4f776e61626c653a206e6577206f776e657220697320746865207a65726f206160448201526564647265737360d01b606482015260840161057e565b61141581611529565b50565b6004602052600090815260409020805481906114339061194b565b80601f016020809104026020016040519081016040528092919081815260200182805461145f9061194b565b80156114ac5780601f10611481576101008083540402835291602001916114ac565b820191906000526020600020905b81548152906001019060200180831161148f57829003601f168201915b50505060018401546002850154600386015460048701546008880154600990980154969793969295509093509160ff80821692610100909204169088565b6000546001600160a01b031633146115145760405162461bcd60e51b815260040161057e9061187d565b60009182526004602052604090912060020155565b600080546001600160a01b038381166001600160a01b0319831681178455604051919092169283917f8be0079c531659141344cd1fd0a4f28419497f9722a3daafe3b4186f6b6457e09190a35050565b8280546115859061194b565b90600052602060002090601f0160209004810192826115a757600085556115ed565b82601f106115c057805160ff19168380011785556115ed565b828001600101855582156115ed579182015b828111156115ed5782518255916020019190600101906115d2565b506115f99291506115fd565b5090565b5b808211156115f957600081556001016115fe565b80356001600160a01b038116811461162957600080fd5b919050565b60006020828403121561164057600080fd5b61164982611612565b9392505050565b6000806040838503121561166357600080fd5b61166c83611612565b946020939093013593505050565b60006020828403121561168c57600080fd5b8151801515811461164957600080fd5b600080600080608085870312156116b257600080fd5b843567ffffffffffffffff808211156116ca57600080fd5b818701915087601f8301126116de57600080fd5b8135818111156116f0576116f06119b1565b604051601f8201601f19908116603f01168101908382118183101715611718576117186119b1565b816040528281528a602084870101111561173157600080fd5b82602086016020830137600060209382018401529a91890135995050604088013597606001359650945050505050565b60006020828403121561177357600080fd5b5035919050565b60006020828403121561178c57600080fd5b5051919050565b600080604083850312156117a657600080fd5b823591506117b660208401611612565b90509250929050565b600080604083850312156117d257600080fd5b50508035926020909101359150565b6000815180845260005b81811015611807576020818501810151868301820152016117eb565b81811115611819576000602083870101525b50601f01601f19169290920160200192915050565b60006101008083526118428184018c6117e1565b602084019a909a525050604081019690965260608601949094526080850192909252151560a0840152151560c083015260e090910152919050565b6020808252818101527f4f776e61626c653a2063616c6c6572206973206e6f7420746865206f776e6572604082015260600190565b8381526060602082015260006118cb60608301856117e1565b9050826040830152949350505050565b600082198211156118ee576118ee61199b565b500190565b60008261191057634e487b7160e01b600052601260045260246000fd5b500490565b600081600019048311821515161561192f5761192f61199b565b500290565b6000828210156119465761194661199b565b500390565b600181811c9082168061195f57607f821691505b6020821081141561046c57634e487b7160e01b600052602260045260246000fd5b60006000198214156119945761199461199b565b5060010190565b634e487b7160e01b600052601160045260246000fd5b634e487b7160e01b600052604160045260246000fdfea2646970667358221220b005cd1651632ea80e7d61f5a6d1559b1bb66a9973cd225c81710fb581ed1e4864736f6c63430008070033",
  "linkReferences": {},
  "deployedLinkReferences": {}
}